:100000000C942A000C94D3140C9406150C943915F6
:100010000C94FA0F0C949D0F0C9447000C94400F15
:100020000C9447000C94E30E0C94860E0C94290E4D
:100030000C9447000C9447000C9447000C94470024
:100040000C94AF1A0C9447000C9447000C94470092
:100050000C94470011241FBECFE5D8E0DEBFCDBF12
:1000600011E0A0E6B0E0ECE3F6E402C005900D92EA
:10007000AE37B107D9F711E0AEE7B1E001C01D928C
:10008000A53AB107E1F70E9452220C941C230C946C
:100090000000EF92FF920F931F937B018C0120E0F1
:1000A00030E040E05FE40E94F50388238CF0C80153
:1000B000B70120E030E040E05FE40E94C1010E940F
:1000C00055049B01AC01205030404040504806C0D0
:1000D000C801B7010E9455049B01AC01B901CA01D6
:1000E0001F910F91FF90EF900895A0E0B0E0EBE733
:1000F000F0E00C94E522DC012B01FA019C91923096
:1001000008F439C1EB018881823008F433C194309E
:1001100069F4843009F02FC111969C91119789815F
:10012000981709F428C1A0E6B0E025C1843009F48D
:1001300021C18230A9F4923009F01DC19A01AD01AC
:1001400088E0EA010990AE01E90109929E0181501F
:10015000C1F7E201898111969C918923818308C1AD
:10016000923009F407C112962D903C901397EB0141
:100170008A819B811496AD90BD90CD90DC901797AD
:10018000EC80FD800E811F819101281B390BB90184
:1001900037FF04C066277727621B730B6032710537
:1001A0000CF061C0121613066CF537014801062EDB
:1001B00004C096948794779467940A94D2F721E0C8
:1001C00030E040E050E004C0220F331F441F551FB1
:1001D0006A95D2F721503040404050402E213F21B7
:1001E00040235123211531054105510521F021E01E
:1001F00030E040E050E079018A01E628F72808293C
:1002000019293CC0232BD1F1260E371E350146019A
:10021000062E04C096948794779467940A94D2F734
:1002200021E030E040E050E004C0220F331F441FC3
:10023000551F6A95D2F721503040404050402A2146
:100240003B214C215D21211531054105510521F04E
:1002500021E030E040E050E059016A01A628B728CB
:10026000C828D9280BC0821593052CF01C01AA249C
:10027000BB24650103C0EE24FF24870111969C91E5
:10028000D20111968C91981709F445C0992339F041
:10029000A80197012A193B094C095D0906C0A6016E
:1002A00095012E193F09400B510B57FD08C01182D3
:1002B0003382228224833583468357831DC081E0A5
:1002C00081833382228288279927DC01821B930B4A
:1002D000A40BB50B84839583A683B7830DC0220F2F
:1002E000331F441F551F24833583468357838281E0
:1002F000938101979383828324813581468157813D
:10030000DA01C9010197A109B1098F5F9F4FAF4F72
:10031000BF4328F30BC0918333822282EA0CFB1C7B
:100320000C1D1D1DE482F5820683178383E0808304
:10033000248135814681578157FF1AC0C901AA27F8
:1003400097FDA095BA2F81709070A070B0705695EF
:10035000479537952795822B932BA42BB52B848318
:100360009583A683B7838281938101969383828349
:10037000DF0101C0D201CD01CDB7DEB7E2E10C94BF
:100380000123A0E2B0E0E7ECF1E00C94F1226983F4
:100390007A838B839C832D833E834F835887E9E048
:1003A000EE2EF12CEC0EFD1ECE010196B7010E943F
:1003B00046068E010F5E1F4FCE010596B8010E94C2
:1003C00046068A8991E089278A8BC701B801AE0168
:1003D000475E5F4F0E9475000E947105A096E6E09F
:1003E0000C940D23A0E2B0E0E8EFF1E00C94F122D0
:1003F00069837A838B839C832D833E834F835887C5
:10040000F9E0EF2EF12CEC0EFD1ECE010196B701A6
:100410000E9446068E010F5E1F4FCE010596B80161
:100420000E944606C701B801AE01475E5F4F0E94B9
:1004300075000E947105A096E6E00C940D23A0E2E1
:10044000B0E0E5E2F2E00C94E52269837A838B83E5
:100450009C832D833E834F835887CE010196BE0136
:10046000675F7F4F0E944606CE010596BE016F5E14
:100470007F4F0E9446069985923088F089898230A4
:10048000C8F0943019F4823051F404C0843029F457
:10049000923081F480E690E0C6C0923049F420E0CA
:1004A0009A858A89981321E02A87CE010996BBC0D4
:1004B000823049F420E09A858A89981321E02A8BBA
:1004C000CE014196B0C02D843E844F8458886D88FB
:1004D0007E888F88988CEE24FF248701AA24BB2471
:1004E000650140E050E060E070E0E0E0F0E0C10174
:1004F00081709070892BE9F0E60CF71C081D191D1E
:100500009A01AB012A0D3B1D4C1D5D1D80E090E062
:10051000A0E0B0E0E614F7040805190520F481E036
:1005200090E0A0E0B0E0BA01A901480F591F6A1F8E
:100530007B1FAA0CBB1CCC1CDD1C97FE08C081E0F5
:1005400090E0A0E0B0E0A82AB92ACA2ADB2A3196B6
:10055000E032F10549F0660C771C881C991C569412
:10056000479437942794C3CFFA85EA892B893C892D
:100570008B859C85280F391F2E5F3F4F17C0CA01FE
:1005800081709070892B61F016950795F794E79428
:1005900080E090E0A0E0B0E8E82AF92A0A2B1B2BC3
:1005A00076956795579547952F5F3F4F77FDE7CF36
:1005B0000CC0440F551F661F771F17FD4160EE0CDE
:1005C000FF1C001F111F21503040403090E05907A0
:1005D00090E0690790E4790760F32B8F3C8FDB0193
:1005E000CA018F779070A070B07080349105A1051A
:1005F000B10561F447FD0AC0E114F10401051105DC
:1006000029F0405C5F4F6F4F7F4F40781A8EFE1786
:1006100011F081E08A8F4D8F5E8F6F8F78A383E01A
:10062000898FCE0149960E947105A096E2E10C9453
:100630000123A8E1B0E0EFE1F3E00C94ED2269833F
:100640007A838B839C832D833E834F835887B9E0C5
:10065000EB2EF12CEC0EFD1ECE010196B7010E948F
:1006600046068E010F5E1F4FCE010596B8010E940F
:1006700046062985223008F47EC03989323010F4CC
:10068000B8017CC08A859A8989278A87243011F02D
:10069000223031F4231709F06EC060E670E06EC0BE
:1006A000343039F41D861E861F86188A1C861B86E8
:1006B00004C0323021F484E08987B7015FC02B8504
:1006C0003C858B899C89281B390B3C872B87ED84C3
:1006D000FE840F851889AD88BE88CF88D88CEA142F
:1006E000FB040C051D0540F4EE0CFF1C001F111F40
:1006F000215030403C872B8720E030E040E050E044
:1007000080E090E0A0E0B0E460E070E0EA14FB0478
:100710000C051D0540F0282B392B4A2B5B2BEA18C2
:10072000FB080C091D09B695A79597958795EE0CC2
:10073000FF1C001F111F6F5F7F4F6F31710531F775
:10074000DA01C9018F779070A070B0708034910584
:10075000A105B10561F427FD0AC0E114F10401050A
:10076000110529F0205C3F4F4F4F5F4F20782D87B8
:100770003E874F87588BBE01675F7F4FCB010E943A
:1007800071056896EAE00C940923A8E1B0E0EBEC6F
:10079000F3E00C94F12269837A838B839C832D830D
:1007A0003E834F83588789E0E82EF12CEC0EFD1E26
:1007B000CE010196B7010E9446068E010F5E1F4FC3
:1007C000CE010596B8010E9446068985823040F028
:1007D0008989823028F0C701B8010E94BE0601C095
:1007E0008FEF6896E6E00C940D23A8E1B0E0EBEF04
:1007F000F3E00C94F12269837A838B839C832D83AD
:100800003E834F83588789E0E82EF12CEC0EFD1EC5
:10081000CE010196B7010E9446068E010F5E1F4F62
:10082000CE010596B8010E9446068985823040F0C7
:100830008989823028F0C701B8010E94BE0601C034
:100840008FEF6896E6E00C940D23A8E1B0E0EBE2B0
:10085000F4E00C94F12269837A838B839C832D834B
:100860003E834F83588789E0E82EF12CEC0EFD1E65
:10087000CE010196B7010E9446068E010F5E1F4F02
:10088000CE010596B8010E9446068985823040F067
:100890008989823028F0C701B8010E94BE0601C0D4
:1008A00081E06896E6E00C940D23ACE0B0E0EBE567
:1008B000F4E00C94F52269837A838B839C83CE01C8
:1008C0000196BE016B5F7F4F0E9446068D8182308C
:1008D00061F1823050F1843021F48E81882351F10E
:1008E0002EC02F81388537FD20C06E812F31310514
:1008F0001CF06623F9F023C08EE190E0821B930B7D
:1009000029853A854B855C8504C056954795379572
:1009100027958A95D2F76623B1F05095409530958A
:1009200021953F4F4F4F5F4F0EC020E030E040E039
:1009300050E009C02FEF3FEF4FEF5FE704C020E02A
:1009400030E040E050E8B901CA012C96E2E00C9496
:100950001123A8E0B0E0EFEAF4E00C94ED227B0173
:100960008C01611571058105910519F482E0898377
:1009700060C083E089838EE1C82ED12CDC82CB82DB
:10098000ED82FE820F831887C801B7010E942205FD
:10099000FC013197F7FF3BC0222733272E1B3F0B6B
:1009A00057016801022E04C0D694C794B794A79447
:1009B0000A94D2F740E050E060E070E081E090E01F
:1009C000A0E0B0E004C0880F991FAA1FBB1F2A95A2
:1009D000D2F70197A109B1098E219F21A023B1234C
:1009E0000097A105B10521F041E050E060E070E022
:1009F0004A295B296C297D294D835E836F83788723
:100A00008EE190E08E1B9F0B9C838B8312C03097EE
:100A100081F00E2E04C0EE0CFF1C001F111F0A9463
:100A2000D2F7ED82FE820F831887CE1ADF0ADC82AE
:100A3000CB821A82CE0101960E9471052896EAE0C7
:100A40000C940923EF92FF920F931F937B018C016B
:100A500080E0E81680E0F80681E0080780E01807EB
:100A600088F48FEFE816F1040105110531F028F044
:100A700088E090E0A0E0B0E017C080E090E0A0E067
:100A8000B0E012C080E0E81680E0F80680E00807D9
:100A900081E0180728F088E190E0A0E0B0E004C011
:100AA00080E190E0A0E0B0E020E230E040E050E003
:100AB000281B390B4A0B5B0B04C016950795F7945E
:100AC000E7948A95D2F7F701E859FF4F8081281BF8
:100AD000310941095109C9011F910F91FF90EF9010
:100AE0000895DF92EF92FF920F931F93FC01E48031
:100AF000F58006811781D1808081823048F480E0C2
:100B000090E0A0E1B0E0E82AF92A0A2B1B2BA5C04F
:100B1000843009F49FC0823021F4EE24FF24870141
:100B200005C0E114F1040105110519F4E0E0F0E05D
:100B300096C0628173819FEF623879070CF05BC0C9
:100B400022E83FEF261B370B2A3131052CF020E03D
:100B500030E040E050E02AC0B801A701022E04C0F6
:100B600076956795579547950A94D2F781E090E07E
:100B7000A0E0B0E004C0880F991FAA1FBB1F2A95F0
:100B8000D2F70197A109B1098E219F21A023B1239A
:100B90000097A105B10521F081E090E0A0E0B0E070
:100BA0009A01AB01282B392B4A2B5B2BDA01C901A7
:100BB0008F779070A070B07080349105A105B10559
:100BC00039F427FF09C0205C3F4F4F4F5F4F04C0EF
:100BD000215C3F4F4F4F5F4FE0E0F0E02030A0E05E
:100BE0003A07A0E04A07A0E45A0710F0E1E0F0E07D
:100BF00079018A0127C06038710564F5FB01E1586D
:100C0000FF4FD801C7018F779070A070B07080340B
:100C10009105A105B10539F4E7FE0DC080E490E02F
:100C2000A0E0B0E004C08FE390E0A0E0B0E0E80E08
:100C3000F91E0A1F1B1F17FF05C016950795F7948D
:100C4000E794319687E016950795F794E7948A958F
:100C5000D1F705C0EE24FF248701EFEFF0E06E2FFF
:100C6000679566276795902F9F77D794DD24D79453
:100C70008E2F8695492F462B582F5D29B701CA0123
:100C80001F910F91FF90EF90DF900895FC01DB0121
:100C9000408151812281622F6F7770E0221F2227CD
:100CA000221F9381892F880F822B282F30E0991FD4
:100CB0009927991F11969C93119721153105A9F534
:100CC000411551056105710511F482E037C082E8D4
:100CD0009FEF13969C938E9312979A01AB0167E056
:100CE000220F331F441F551F6A95D1F783E08C9361
:100CF0000DC0220F331F441F551F12968D919C91DA
:100D00001397019713969C938E931297203080E04F
:100D1000380780E0480780E4580758F314962D936D
:100D20003D934D935C93179708952F3F310579F4C8
:100D3000411551056105710519F484E08C930895FE
:100D400064FF03C081E08C9312C01C9210C02F5727
:100D5000304013963C932E93129783E08C9387E058
:100D6000440F551F661F771F8A95D1F7706414963C
:100D70004D935D936D937C93179708951F93DC01BA
:100D8000FB019C91923008F447C08081823008F4C6
:100D900043C0943051F411961C91843099F58181AF
:100DA000682F70E0611B71093FC0843021F09230E0
:100DB00031F48230B9F18181882389F12DC01196F7
:100DC0001C9111978230F1F081811817D9F4129695
:100DD0002D913C911397828193818217930794F010
:100DE00028173907BCF014968D919D910D90BC91F8
:100DF000A02D2481358146815781281739074A075C
:100E00005B0718F4112341F00AC082179307A40767
:100E1000B50740F4112319F061E070E005C06FEFF1
:100E20007FEF02C060E070E0CB011F910895DF9377
:100E3000CF9300D0CDB7DEB79A83898389819A8119
:100E40000E941908A0E4B0E0E0E4F0E0808180684E
:100E50008C93A0E4B0E0E0E4F0E080818F7B8C93A1
:100E6000ABE2B0E0EBE2F0E080818D7F8C93ABE20F
:100E7000B0E0EBE2F0E080818E7F8C93AAE2B0E0FC
:100E8000EAE2F0E0808180618C93AAE2B0E0EAE2DD
:100E9000F0E0808188608C93A0E4B0E0E0E4F0E0D2
:100EA000808182608C93A0E4B0E0E0E4F0E0808197
:100EB00084608C93AAE2B0E0EAE2F0E080818B7F6C
:100EC0008C93A0E4B0E0E0E4F0E08081877F8C9335
:100ED000A0E4B0E0E0E4F0E0808180628C93A0E4E4
:100EE000B0E0E0E4F0E0808180618C930F900F909F
:100EF000CF91DF910895DF93CF9300D0CDB7DEB7C8
:100F00008A831982EBE2F0E0808182958695877072
:100F1000882F90E0817090700097A1F3ECE2F0E0F0
:100F20008A81808381E0898389810F900F90CF919E
:100F3000DF910895DF93CF9300D000D0CDB7DEB717
:100F40009B838A8319828A819B81009769F48981B6
:100F50008C8316C0EA81FB8180810E947B078A8195
:100F60009B8101969B838A83EA81FB818081882310
:100F700089F780E00E947B0781E0898389818C83E7
:100F80008C810F900F900F900F90CF91DF9108956B
:100F9000DF93CF9300D000D0CDB7DEB79B838A8399
:100FA00019828A819B81009719F489818C830FC0F3
:100FB000EBE2F0E080818823DCF7ECE2F0E0808176
:100FC000EA81FB81808381E0898389818C838C81A4
:100FD0000F900F900F900F90CF91DF910895DF93B6
:100FE000CF9300D000D0CDB7DEB79B838A83198220
:100FF0008A819B81009761F489818C8312C08A81E8
:101000009B810E94C8078A819B8101969B838A836A
:10101000EA81FB818081882391F781E0898389813E
:101020008C838C810F900F900F900F90CF91DF9158
:101030000895DF93CF9300D000D0CDB7DEB79C8367
:101040008B831A8219828B819C81CC01A0E0B0E055
:10105000880F991FAA1FBB1F880F991FAA1FBB1FAC
:10106000880F991FAA1FBB1F880F991FAA1FBB1F9C
:101070009C01AD0180E092E1AAE7B0E0BC01CD01A6
:101080000E94A822DA01C90101979A838983A0E40A
:10109000B0E0E0E4F0E080818F778C93E0E4F0E072
:1010A00089819A81892F99278083E9E2F0E08981FB
:1010B00080830F900F900F900F90CF91DF91089544
:1010C000DF93CF930F92CDB7DEB71982E0E2F0E065
:1010D00082E08083E1E2F0E010820E948711E6E581
:1010E000F0E085E48083A2E2B0E0E2E2F0E080811B
:1010F00081608C93A2E2B0E0E2E2F0E08081817056
:1011000088608C9381E0898389810F90CF91DF91F2
:101110000895DF93CF930F92CDB7DEB71982E6E53E
:10112000F0E084EA8083E6E5F0E080818823DCF764
:10113000E1E2F0E08081882F90E0887F9070883035
:10114000910511F481E0898389810F90CF91DF911E
:101150000895DF93CF930F92CDB7DEB71982E6E5FE
:10116000F0E084EA8083E6E5F0E080818823DCF724
:10117000E1E2F0E08081882F90E0887F90708031FC
:10118000910511F481E0898389810F90CF91DF91DE
:101190000895DF93CF930F92CDB7DEB71982E6E5BE
:1011A000F0E084E9808381E0898389810F90CF9189
:1011B000DF910895DF93CF9300D00F92CDB7DEB7C4
:1011C0008A836B831982E3E2F0E08A81882F90E0C2
:1011D000880F991F982F8B81892B8083E6E5F0E09B
:1011E00084E88083E6E5F0E080818823DCF78B816A
:1011F000882369F4E1E2F0E08081882F90E0887F25
:1012000090708831910591F481E089830FC08B81C2
:10121000813061F4E1E2F0E08081882F90E0887F06
:1012200090708034910511F481E0898389810F9059
:101230000F900F90CF91DF910895DF93CF9300D05F
:10124000CDB7DEB78A831982E3E2F0E08A8180833A
:10125000E6E5F0E084E88083E6E5F0E0808188233D
:10126000DCF7E1E2F0E08081882F90E0887F9070E9
:101270008832910511F481E0898389810F900F9064
:10128000CF91DF910895DF93CF9300D00F92CDB728
:10129000DEB79B838A831982A6E5B0E0E6E5F0E03D
:1012A000808180688C93E6E5F0E080818823DCF71C
:1012B000E1E2F0E08081882F90E0887F90708035B7
:1012C000910519F481E089830CC0E1E2F0E08081AE
:1012D000882F90E0887F90708038910511F481E02C
:1012E0008983E3E2F0E08081EA81FB818083898168
:1012F0000F900F900F90CF91DF910895DF93CF93D0
:101300000F92CDB7DEB71982A6E5B0E0E6E5F0E0D2
:10131000808180688C93E6E5F0E080818823DCF7AB
:10132000E1E2F0E08081882F90E0887F9070803645
:10133000910519F481E089830CC0E1E2F0E080813D
:10134000882F90E0887F9070883A910511F481E0B1
:10135000898389810F90CF91DF910895DF93CF9397
:10136000CDB7DEB70E948711A3E5B0E0E3E5F0E07A
:10137000808180648C93A3E5B0E0E3E5F0E08081B8
:1013800088608C93A3E5B0E0E3E5F0E080818F7E98
:101390008C93A3E5B0E0E3E5F0E0808180628C937C
:1013A00081E063E041E00E949715A3E5B0E0E3E54A
:1013B000F0E0808181608C93A3E5B0E0E3E5F0E0AC
:1013C00080818D7F8C93A3E5B0E0E3E5F0E0808140
:1013D0008B7F8C93CF91DF910895DF93CF93CDB71F
:1013E000DEB7CF91DF910895DF93CF93CDB7DEB70E
:1013F000CF91DF910895EF92FF920F931F93DF93A8
:10140000CF93CDB7DEB760970FB6F894DEBF0FBEAF
:10141000CDBF9A8789874B875C876D877E871D82C2
:101420001E821F821886E3E5F0E08081882F90E01D
:101430009C0127703070388B2F878F859889833077
:10144000910569F12F853889243031055CF48F8549
:1014500098898130910589F02F85388922303105AE
:10146000A9F037C08F8598898430910509F12F85BF
:1014700038892530310529F12CC081E090E0A0E0C9
:10148000B0E08D839E83AF83B88723C088E090E06F
:10149000A0E0B0E08D839E83AF83B8871AC080E45C
:1014A00090E0A0E0B0E08D839E83AF83B88711C049
:1014B00080E091E0A0E0B0E08D839E83AF83B887A9
:1014C00008C080E094E0A0E0B0E08D839E83AF830D
:1014D000B8876B857C858D859E8520E034E244E766
:1014E00059E40E941F02DC01CB017C018D016D815A
:1014F0007E818F8198850E94A9049B01AC01C8015F
:10150000B7010E941903DC01CB0189839A83AB8365
:10151000BC8389859A8590938B0180938A010E9470
:10152000ED0980E060960FB6F894DEBF0FBECDBF28
:10153000CF91DF911F910F91FF90EF900895DF936E
:10154000CF930F92CDB7DEB78983ECE5F0E08981C8
:10155000882F90E0982F882724E630E0B9010E9478
:101560009422CB0180830F90CF91DF910895DF9378
:10157000CF93CDB7DEB70E948711AFE4B0E0EFE4C0
:10158000F0E080818E7F8C93AFE4B0E0EFE4F0E098
:1015900080818D7F8C93AEE4B0E0EEE4F0E080815A
:1015A000877F8C93AEE4B0E0EEE4F0E08081806170
:1015B0008C93AFE4B0E0EFE4F0E080818F7B8C931C
:1015C000AFE4B0E0EFE4F0E0808180688C93AFE4BA
:1015D000B0E0EFE4F0E080818F7E8C93AFE4B0E088
:1015E000EFE4F0E080818F7D8C93AEE4B0E0EEE438
:1015F000F0E0808181608C93AEE4B0E0EEE4F0E056
:1016000080818D7F8C93AEE4B0E0EEE4F0E08081E9
:101610008B7F8C93CF91DF910895DF93CF93CDB7DC
:10162000DEB7A9E5B0E0E9E5F0E0808180618C9368
:10163000CF91DF910895DF93CF93CDB7DEB7A9E5C2
:10164000B0E0E9E5F0E080818F7E8C93CF91DF916F
:101650000895EF92FF920F931F93DF93CF93CDB72F
:10166000DEB761970FB6F894DEBF0FBECDBF9A8785
:1016700089874B875C876D877E871D821E821F82CC
:101680001886EEE4F0E08081882F90E09C012770BE
:101690003070398B288B888999898330910569F15D
:1016A00028893989243031055CF488899989813009
:1016B000910589F02889398922303105A9F038C08F
:1016C000888999898430910509F1288939892530DB
:1016D000310529F12DC081E090E0A0E0B0E08D83DC
:1016E0009E83AF83B88727C088E090E0A0E0B0E099
:1016F0008D839E83AF83B8871EC080E490E0A0E016
:10170000B0E08D839E83AF83B88715C080E091E001
:10171000A0E0B0E08D839E83AF83B8870CC080E0EB
:1017200094E0A0E0B0E08D839E83AF83B88703C0D0
:1017300031E03F8731C06B857C858D859E8520E0BB
:1017400034E244E759E40E941F02DC01CB017C0132
:101750008D016D817E818F8198850E94A9049B01F6
:10176000AC01C801B7010E941903DC01CB018983D8
:101770009A83AB83BC8310928201109283011092F2
:1017800084011092850189859A8590938D018093BB
:101790008C010E940D0B1F868F8561960FB6F89401
:1017A000DEBF0FBECDBFCF91DF911F910F91FF9094
:1017B000EF900895CF92DF92EF92FF920F931F93D5
:1017C000DF93CF9300D00F92CDB7DEB78B831A8211
:1017D0001982E6E4F0E0808191819A8389830F2E5B
:1017E000FAE4CF2EDD24F02D8B81E82EFF2400E0DB
:1017F00010E089819A819C0140E050E0C801B70166
:101800000E947522DC01CB0124E630E040E050E08C
:10181000BC01CD010E94A822DA01C901F601918321
:1018200080830F900F900F90CF91DF911F910F91B8
:10183000FF90EF90DF90CF900895CF92DF92EF92DC
:10184000FF920F931F93DF93CF93CDB7DEB72B9704
:101850000FB6F894DEBF0FBECDBF8D834E835F837E
:101860006887798719821A821B821C82EEE4F0E075
:101870008081882F90E09C01277030703B872A87F9
:101880008A859B858330910569F1EA85FB85E43083
:10189000F1055CF42A853B852130310589F08A8584
:1018A0009B8582309105A9F038C0EA85FB85E4303C
:1018B000F10509F12A853B852530310529F12DC037
:1018C00081E090E0A0E0B0E089839A83AB83BC83A1
:1018D0002CC088E090E0A0E0B0E089839A83AB83DD
:1018E000BC8323C080E490E0A0E0B0E089839A83C9
:1018F000AB83BC831AC080E091E0A0E0B0E08983B4
:101900009A83AB83BC8311C080E094E0A0E0B0E098
:1019100089839A83AB83BC8308C088E090E0A0E011
:10192000B0E089839A83AB83BC8306E410E08981AD
:101930009A81AB81BC812E813F8148855985BC014C
:10194000CD010E9475229B01AC0180E492E4AFE0DE
:10195000B0E0BC01CD010E94A822DA01C9010197C3
:10196000F801918380830F2EFAE4CF2EDD24F02D31
:101970008D81E82EFF2400E010E0E6E4F0E08081B5
:1019800091819C0140E050E0C801B7010E9475229E
:10199000DC01CB0124E630E040E050E0BC01CD01A9
:1019A0000E94A822DA01C901F601918380832B9657
:1019B0000FB6F894DEBF0FBECDBFCF91DF911F9160
:1019C0000F91FF90EF90DF90CF900895DF93CF932A
:1019D000CDB7DEB7A5E4B0E0E5E4F0E08081806457
:1019E0008C93A5E4B0E0E5E4F0E08081877F8C9300
:1019F000A5E4B0E0E5E4F0E080818F7E8C93A5E47F
:101A0000B0E0E5E4F0E0808180628C93A5E4B0E092
:101A1000E5E4F0E0808181608C93A5E4B0E0E5E44A
:101A2000F0E080818D7F8C93A5E4B0E0E5E4F0E008
:101A300080818B7F8C930E948711CF91DF910895D5
:101A4000DF93CF93CDB7DEB7CF91DF910895DF93CA
:101A5000CF93CDB7DEB7CF91DF910895EF92FF928C
:101A60000F931F93DF93CF93CDB7DEB760970FB679
:101A7000F894DEBF0FBECDBF9A8789874B875C87FE
:101A80006D877E871D821E821F821886E5E4F0E046
:101A90008081882F90E09C0127703070388B2F87D1
:101AA0008F8598898330910569F12F853889243095
:101AB00031055CF48F8598898130910589F02F85F7
:101AC000388922303105A9F037C08F859889843054
:101AD000910509F12F8538892530310529F12CC070
:101AE00081E090E0A0E0B0E08D839E83AF83B88773
:101AF00023C088E090E0A0E0B0E08D839E83AF83B8
:101B0000B8871AC080E490E0A0E0B0E08D839E83A7
:101B1000AF83B88711C080E091E0A0E0B0E08D8392
:101B20009E83AF83B88708C080E094E0A0E0B0E077
:101B30008D839E83AF83B8876B857C858D859E85DD
:101B400020E034E244E759E40E941F02DC01CB01AB
:101B50007C018D016D817E818F8198850E94A90411
:101B60009B01AC01C801B7010E941903DC01CB0144
:101B700089839A83AB83BC8389859A8590938F01EF
:101B800080938E010E94200D80E060960FB6F8943D
:101B9000DEBF0FBECDBFCF91DF911F910F91FF90A0
:101BA000EF900895DF93CF930F92CDB7DEB789837F
:101BB000E3E4F0E08981882F90E0982F882724E6DD
:101BC00030E0B9010E949422CB0180830F90CF9125
:101BD000DF910895DF93CF930F92CDB7DEB789835E
:101BE000A895A1E4B0E0E1E4F0E0808188618C9305
:101BF000E1E4F0E08981886080830F90CF91DF91EC
:101C00000895DF93CF93CDB7DEB7A895A1E4B0E0F8
:101C1000E1E4F0E0808188618C93A1E4B0E0E1E44C
:101C2000F0E0808188608C93CF91DF910895DF93FD
:101C3000CF93CDB7DEB7A895A1E4B0E0E1E4F0E042
:101C4000808188618C93E1E4F0E01082CF91DF9194
:101C500008951F920F920FB60F9211242F933F9366
:101C60004F935F936F937F938F939F93AF93BF93A4
:101C7000EF93FF93DF93CF93CDB7DEB780917E01D3
:101C800090917F01A0918001B09181010196A11DE9
:101C9000B11D80937E0190937F01A0938001B0934A
:101CA000810120917E0130917F014091800150910E
:101CB00081018091900190919101A0919201B09148
:101CC0009301281739074A075B0768F010927E01D5
:101CD00010927F011092800110928101E0918A019F
:101CE000F0918B010995CF91DF91FF91EF91BF9119
:101CF000AF919F918F917F916F915F914F913F91A4
:101D00002F910F900FBE0F901F9018951F920F925A
:101D10000FB60F9211242F933F934F935F936F93BE
:101D20007F938F939F93AF93BF93EF93FF93DF9333
:101D3000CF93CDB7DEB780917E0190917F01A091C6
:101D40008001B09181010196A11DB11D80937E019A
:101D500090937F01A0938001B093810120917E0137
:101D600030917F01409180015091810180919001DB
:101D700090919101A0919201B09193012817390798
:101D80004A075B0768F010927E0110927F01109263
:101D9000800110928101E0918A01F0918B010995F7
:101DA000CF91DF91FF91EF91BF91AF919F918F9173
:101DB0007F916F915F914F913F912F910F900FBE47
:101DC0000F901F9018951F920F920FB60F9211242B
:101DD0002F933F934F935F936F937F938F939F9333
:101DE000AF93BF93EF93FF93DF93CF93CDB7DEB75E
:101DF0008091820190918301A0918401B09185012D
:101E00000196A11DB11D8093820190938301A0933F
:101E10008401B0938501209182013091830140912A
:101E20008401509185018091940190919501A09138
:101E30009601B0919701281739074A075B0768F0A8
:101E400010928201109283011092840110928501F8
:101E5000E0918C01F0918D010995CF91DF91FF9177
:101E6000EF91BF91AF919F918F917F916F915F9112
:101E70004F913F912F910F900FBE0F901F9018958B
:101E80001F920F920FB60F9211242F933F934F93EF
:101E90005F936F937F938F939F93AF93BF93EF93D2
:101EA000FF93DF93CF93CDB7DEB7809182019091FE
:101EB0008301A0918401B09185010196A11DB11DFE
:101EC0008093820190938301A0938401B093850154
:101ED00020918201309183014091840150918501CC
:101EE0008091940190919501A0919601B0919701F4
:101EF000281739074A075B0768F010928201109291
:101F000083011092840110928501E0918C01F0917F
:101F10008D010995CF91DF91FF91EF91BF91AF9125
:101F20009F918F917F916F915F914F913F912F91F1
:101F30000F900FBE0F901F9018951F920F920FB623
:101F40000F9211242F933F934F935F936F937F933F
:101F50008F939F93AF93BF93EF93FF93DF93CF93B1
:101F6000CDB7DEB78091860190918701A09188015D
:101F7000B09189010196A11DB11D809386019093B6
:101F80008701A0938801B093890120918601309147
:101F90008701409188015091890180919801909129
:101FA0009901A0919A01B0919B01281739074A071E
:101FB0005B0768F0109286011092870110928801E9
:101FC00010928901E0918E01F0918F010995CF91D6
:101FD000DF91FF91EF91BF91AF919F918F917F9191
:101FE0006F915F914F913F912F910F900FBE0F9086
:101FF0001F9018951F920F920FB60F9211242F93D6
:102000003F934F935F936F937F938F939F93AF9380
:10201000BF93EF93FF93DF93CF93CDB7DEB780915C
:10202000860190918701A0918801B0918901019664
:10203000A11DB11D8093860190938701A093880113
:10204000B0938901209186013091870140918801E8
:10205000509189018091980190919901A0919A01E4
:10206000B0919B01281739074A075B0768F0109267
:102070008601109287011092880110928901E091E7
:102080008E01F0918F010995CF91DF91FF91EF9132
:10209000BF91AF919F918F917F916F915F914F9180
:1020A0003F912F910F900FBE0F901F901895DF93C7
:1020B000CF93CDB7DEB781E066E041E00E9497158F
:1020C00081E065E040E00E94971581E067E040E034
:1020D0000E94971581E064E040E00E949715ADE210
:1020E000B0E0EDE2F0E080818F7E8C93ADE2B0E075
:1020F000EDE2F0E0808180628C93ADE2B0E0EDE251
:10210000F0E0808181608C93ADE2B0E0EDE2F0E040
:1021100080818D7F8C93AEE2B0E0EEE2F0E08081D2
:102120008E7F8C93ADE2B0E0EDE2F0E080818064E0
:102130008C93CF91DF9108950F931F93DF93CF93EB
:1021400000D0CDB7DEB78A8319820FE210E08A8112
:102150000E944711F8018083EEE2F0E0808188233D
:10216000DCF781E0898389810F900F90CF91DF9117
:102170001F910F910895DF93CF9300D000D0CDB77A
:10218000DEB79B838A8319828A819B81009719F429
:1021900089818C8313C0EA81FB8180810E949C101D
:1021A0008A819B8101969B838A83EA81FB8180815E
:1021B000882389F781E0898389818C838C810F90C2
:1021C0000F900F900F90CF91DF910895DF93CF93F1
:1021D00000D00F92CDB7DEB79B838A831982EEE2DF
:1021E000F0E080818823DCF7EFE2F0E08081EA8193
:1021F000FB818083EFE2F0E080810E944711EA8159
:10220000FB81808381E0898389810F900F900F90FB
:10221000CF91DF910895DF93CF93CDB7DEB72797A6
:102220000FB6F894DEBF0FBECDBF9D838C831B829B
:102230008C819D81009719F48B818E831EC08C81C7
:102240009D819A83898389819A810E94E610E98120
:10225000FA8180818F838F81882311F081E08F83C1
:102260008F8129813A812F5F3F4F3A8329838823C9
:1022700051F781E08B838B818E838E8127960FB6F9
:10228000F894DEBF0FBECDBFCF91DF910895DF93ED
:10229000CF930F92CDB7DEB78983898182958F70F6
:1022A000282F8981882F90E082959295907F98279A
:1022B000807F9827822B89838981882F90E08C7C6E
:1022C00090709595879595958795282F8981882F6A
:1022D00090E083739070880F991F880F991F822B4D
:1022E00089838981882F90E08A7A90709595879567
:1022F000282F8981882F90E085759070880F991F0D
:10230000822B898389810F90CF91DF910895DF938C
:10231000CF930F92CDB7DEB71982EFE5F0E0808161
:1023200088234CF0AFE5B0E0EFE5F0E08081806815
:102330008C9381E0898389810F90CF91DF910895FB
:10234000DF93CF930F92CDB7DEB71982EFE5F0E0C0
:10235000808188234CF4AFE5B0E0EFE5F0E08081C8
:102360008F778C9381E0898389810F90CF91DF9162
:102370000895DF93CF93CDB7DEB72A970FB6F894C1
:10238000DEBF0FBECDBF9B838A8319828A819B816A
:10239000009719F429812A8736C1EA81FB8180815F
:1023A000813009F064C0ABE5B0E0EBE5F0E080819E
:1023B00080648C93EA81FB818181282F30E039870A
:1023C0002887888599858130910521F1288539856F
:1023D000223031052CF488859985009761F053C02F
:1023E000288539852230310521F18885998583300A
:1023F000910571F148C0A5E5B0E0E5E5F0E0808128
:102400008E7F8C93A5E5B0E0E5E5F0E080818D7FDF
:102410008C9339C0A5E5B0E0E5E5F0E0808181600E
:102420008C93A5E5B0E0E5E5F0E080818D7F8C93AD
:102430002AC0A5E5B0E0E5E5F0E080818E7F8C93D1
:10244000A5E5B0E0E5E5F0E0808182608C931BC0FB
:10245000A5E5B0E0E5E5F0E0808181608C93A5E53D
:10246000B0E0E5E5F0E0808182608C930CC0EA8109
:10247000FB818081882339F4ABE5B0E0EBE5F0E047
:1024800080818F7B8C938A819B81FC013296808135
:10249000813009F066C0ABE5B0E0EBE5F0E08081AB
:1024A00080688C938A819B81FC0132968181282FE0
:1024B00030E03F832E838E819F818130910521F111
:1024C0002E813F81223031052CF48E819F8100972F
:1024D00061F055C02E813F812230310521F18E817E
:1024E0009F818330910571F14AC0A5E5B0E0E5E533
:1024F000F0E080818B7F8C93A5E5B0E0E5E5F0E02E
:102500008081877F8C933BC0A5E5B0E0E5E5F0E0F6
:10251000808184608C93A5E5B0E0E5E5F0E0808102
:10252000877F8C932CC0A5E5B0E0E5E5F0E08081E5
:102530008B7F8C93A5E5B0E0E5E5F0E080818860D5
:102540008C931DC0A5E5B0E0E5E5F0E080818460F6
:102550008C93A5E5B0E0E5E5F0E0808188608C93A0
:102560000EC08A819B81FC0132968081882339F4D8
:10257000ABE5B0E0EBE5F0E080818F778C938A816A
:102580009B81FC0134968081813059F5ABE5B0E048
:10259000EBE5F0E0808180628C938A819B81FC0175
:1025A00034968181282F30E03D832C838C819D815E
:1025B0008230910531F02C813D812330310549F085
:1025C0001EC0A4E5B0E0E4E5F0E080818F7B8C9351
:1025D00016C0A4E5B0E0E4E5F0E0808180648C936F
:1025E0000EC08A819B81FC0134968081882339F456
:1025F000ABE5B0E0EBE5F0E080818F7D8C9381E08E
:10260000898339813A878A852A960FB6F894DEBF86
:102610000FBECDBFCF91DF910895DF93CF9300D050
:1026200000D0CDB7DEB78A8319828A81282F30E0A7
:102630003C832B838B819C818130910589F02B8198
:102640003C8122303105A1F08B819C810097B9F447
:10265000ABE5B0E0EBE5F0E0808180648C930FC0E7
:10266000ABE5B0E0EBE5F0E0808180688C9307C0DB
:10267000ABE5B0E0EBE5F0E0808180628C9381E037
:10268000898389810F900F900F900F90CF91DF91E8
:102690000895DF93CF9300D000D00F92CDB7DEB76F
:1026A0008A8319828A81833018F029812D832EC074
:1026B0008A81282F30E03C832B838B819C81813061
:1026C000910589F02B813C8122303105A1F08B816D
:1026D0009C810097B9F4ABE5B0E0EBE5F0E08081D8
:1026E0008F7B8C930FC0ABE5B0E0EBE5F0E0808131
:1026F0008F778C9307C0ABE5B0E0EBE5F0E080812D
:102700008F7D8C9381E0898399819D838D810F904A
:102710000F900F900F900F90CF91DF910895DF935E
:10272000CF93CDB7DEB72C970FB6F894DEBF0FBEB0
:10273000CDBF8A836B8319828A81833018F48B81A1
:10274000843018F029812C87EFC08A81282F30E04F
:102750003B872A878A859B858130910509F466C06D
:102760002A853B852230310509F4BBC08A859B85CB
:10277000009709F0D5C08B81282F30E03987288752
:102780008885998581309105A9F028853985223081
:1027900031052CF4888599850097D9F0C1C028852A
:1027A00039852230310521F188859985833091055D
:1027B00071F1B6C0A5E5B0E0E5E5F0E080818160AB
:1027C0008C93A5E5B0E0E5E5F0E080818D7F8C930A
:1027D000A7C0A5E5B0E0E5E5F0E080818E7F8C93B1
:1027E000A5E5B0E0E5E5F0E080818D7F8C9398C0B1
:1027F000A5E5B0E0E5E5F0E080818E7F8C93A5E56E
:10280000B0E0E5E5F0E0808182608C9389C0A5E5C9
:10281000B0E0E5E5F0E0808181608C93A5E5B0E073
:10282000E5E5F0E0808182608C937AC08B81282F6F
:1028300030E03F832E838E819F8181309105A9F006
:102840002E813F81223031052CF48E819F810097AB
:10285000D9F066C02E813F812230310521F18E8171
:102860009F818330910571F15BC0A5E5B0E0E5E59E
:10287000F0E0808184608C93A5E5B0E0E5E5F0E0D0
:102880008081877F8C934CC0A5E5B0E0E5E5F0E062
:1028900080818B7F8C93A5E5B0E0E5E5F0E0808159
:1028A000877F8C933DC0A5E5B0E0E5E5F0E0808151
:1028B0008B7F8C93A5E5B0E0E5E5F0E08081886052
:1028C0008C932EC0A5E5B0E0E5E5F0E08081846062
:1028D0008C93A5E5B0E0E5E5F0E0808188608C931D
:1028E0001FC08B81282F30E03D832C838C819D81FC
:1028F0008230910531F02C813D812330310549F042
:102900000FC0A4E5B0E0E4E5F0E080818F7B8C931C
:1029100007C0A4E5B0E0E4E5F0E0808180648C933A
:1029200081E0898339813C878C852C960FB6F89499
:10293000DEBF0FBECDBFCF91DF910895DF93CF9360
:1029400000D000D00F92CDB7DEB79B838A836C8313
:1029500019828A819B81009729F483E08983898188
:102960008D8318C08C81833028F084E0898389812D
:102970008D8310C08C81882F90E0880F991FFC01F7
:10298000E456FE4F8A819B819183808381E0898315
:1029900089818D838D810F900F900F900F900F90F4
:1029A000CF91DF9108951F920F920FB60F921124CD
:1029B0002F933F934F935F936F937F938F939F9347
:1029C000AF93BF93EF93FF93DF93CF93CDB7DEB772
:1029D00080919C0190919D01009729F0E0919C01CC
:1029E000F0919D010995CF91DF91FF91EF91BF91FA
:1029F000AF919F918F917F916F915F914F913F9197
:102A00002F910F900FBE0F901F9018951F920F924D
:102A10000FB60F9211242F933F934F935F936F93B1
:102A20007F938F939F93AF93BF93EF93FF93DF9326
:102A3000CF93CDB7DEB780919E0190919F01009713
:102A400029F0E0919E01F0919F010995CF91DF91CE
:102A5000FF91EF91BF91AF919F918F917F916F9176
:102A60005F914F913F912F910F900FBE0F901F904C
:102A700018951F920F920FB60F9211242F933F9328
:102A80004F935F936F937F938F939F93AF93BF9376
:102A9000EF93FF93DF93CF93CDB7DEB78091A00183
:102AA0009091A101009729F0E091A001F091A1017E
:102AB0000995CF91DF91FF91EF91BF91AF919F91D8
:102AC0008F917F916F915F914F913F912F910F90D7
:102AD0000FBE0F901F901895DF93CF930F92CDB735
:102AE000DEB71982EAE3F0E080EF8083EBE3F0E009
:102AF00083EC8083E7E3F0E080EF8083E8E3F0E0BD
:102B000083EC8083E4E3F0E080EF8083E5E3F0E0B2
:102B100083EC8083E1E3F0E080EF8083E2E3F0E0A8
:102B200083EC808389810F90CF91DF910895DF93AB
:102B3000CF93CDB7DEB727970FB6F894DEBF0FBEA1
:102B4000CDBF8A836B834C8319828A81843008F0DD
:102B5000DEC08B81883008F0DAC08C81823008F0CA
:102B6000D6C08A81282F30E03F832E838E819F81BB
:102B70008130910509F443C02E813F812230310517
:102B80002CF48E819F81009771F0BCC02E813F8113
:102B90002230310509F45FC08E819F818330910519
:102BA00009F485C0AFC08C818130A1F4AAE3B0E004
:102BB000EAE3F0E08081482F8B81282F30E081E02C
:102BC00090E0022E02C0880F991F0A94E2F7842B2E
:102BD0008C9398C0AAE3B0E0EAE3F0E08081482F4C
:102BE0008B81282F30E081E090E0022E02C0880F18
:102BF000991F0A94E2F7809584238C9383C08C817B
:102C00008130A1F4A7E3B0E0E7E3F0E08081482F52
:102C10008B81282F30E081E090E0022E02C0880FE7
:102C2000991F0A94E2F7842B8C936CC0A7E3B0E061
:102C3000E7E3F0E08081482F8B81282F30E081E0AE
:102C400090E0022E02C0880F991F0A94E2F7809547
:102C500084238C9357C08C818130A1F4A4E3B0E02D
:102C6000E4E3F0E08081482F8B81282F30E081E081
:102C700090E0022E02C0880F991F0A94E2F7842B7D
:102C80008C9340C0A4E3B0E0E4E3F0E08081482FFF
:102C90008B81282F30E081E090E0022E02C0880F67
:102CA000991F0A94E2F7809584238C932BC08C8122
:102CB0008130A1F4A1E3B0E0E1E3F0E08081482FAE
:102CC0008B81282F30E081E090E0022E02C0880F37
:102CD000991F0A94E2F7842B8C9314C0A1E3B0E00F
:102CE000E1E3F0E08081482F8B81282F30E081E004
:102CF00090E0022E02C0880F991F0A94E2F7809597
:102D000084238C9381E0898399819D8302C02981EA
:102D10002D838D8127960FB6F894DEBF0FBECDBFF1
:102D2000CF91DF910895DF93CF93CDB7DEB727978B
:102D30000FB6F894DEBF0FBECDBF8A836B834C8382
:102D400019828A81843008F0DEC08B81883008F0D7
:102D5000DAC08C81823008F0D6C08A81282F30E01A
:102D60003F832E838E819F818130910509F443C07A
:102D70002E813F81223031052CF48E819F81009776
:102D800071F0BCC02E813F812230310509F45FC053
:102D90008E819F818330910509F485C0AFC08C81FD
:102DA0008823A1F0ABE3B0E0EBE3F0E08081482FB3
:102DB0008B81282F30E081E090E0022E02C0880F46
:102DC000991F0A94E2F7842B8C9398C0ABE3B0E090
:102DD000EBE3F0E08081482F8B81282F30E081E009
:102DE00090E0022E02C0880F991F0A94E2F78095A6
:102DF00084238C9383C08C818823A1F0A8E3B0E066
:102E0000E8E3F0E08081482F8B81282F30E081E0DB
:102E100090E0022E02C0880F991F0A94E2F7842BDB
:102E20008C936CC0A8E3B0E0E8E3F0E08081482F29
:102E30008B81282F30E081E090E0022E02C0880FC5
:102E4000991F0A94E2F7809584238C9357C08C8154
:102E50008823A1F0A5E3B0E0E5E3F0E08081482F0E
:102E60008B81282F30E081E090E0022E02C0880F95
:102E7000991F0A94E2F7842B8C9340C0A5E3B0E03D
:102E8000E5E3F0E08081482F8B81282F30E081E05E
:102E900090E0022E02C0880F991F0A94E2F78095F5
:102EA00084238C932BC08C818823A1F0A2E3B0E013
:102EB000E2E3F0E08081482F8B81282F30E081E031
:102EC00090E0022E02C0880F991F0A94E2F7842B2B
:102ED0008C9314C0A2E3B0E0E2E3F0E08081482FDD
:102EE0008B81282F30E081E090E0022E02C0880F15
:102EF000991F0A94E2F7809584238C9381E089835B
:102F000099819D8302C029812D838D8127960FB6DB
:102F1000F894DEBF0FBECDBFCF91DF910895DF9350
:102F2000CF93CDB7DEB728970FB6F894DEBF0FBEAC
:102F3000CDBF8A836B835D834C8319828C819D8195
:102F4000009729F483E08983298128877FC08A81BB
:102F5000843008F079C08B81883008F075C08A8190
:102F6000482F50E05F834E838E819F818130910591
:102F700059F12E813F812230310534F44E815F8139
:102F80004115510569F05BC08E819F8182309105AA
:102F900079F12E813F812330310509F43DC04FC0C6
:102FA000E9E3F0E08081282F30E08B81882F90E0EA
:102FB000A90102C0559547958A95E2F7CA0181702B
:102FC000EC81FD8180833BC0E6E3F0E08081282F27
:102FD00030E08B81882F90E0A90102C0559547957C
:102FE0008A95E2F7CA018170EC81FD81808327C058
:102FF000E3E3F0E08081282F30E08B81882F90E0A0
:10300000A90102C0559547958A95E2F7CA018170DA
:10301000EC81FD81808313C0E0E3F0E08081282F04
:1030200030E08B81882F90E0A90102C0559547952B
:103030008A95E2F7CA018170EC81FD81808381E08D
:1030400089835981588702C0898188878885289615
:103050000FB6F894DEBF0FBECDBFCF91DF910895BC
:10306000DF93CF9300D000D000D0CDB7DEB78A83F6
:103070006B8319828A81843008F077C08B81883015
:1030800008F073C08A81282F30E03E832D838D8124
:103090009E818130910549F12D813E81223031059B
:1030A0002CF48D819E81009761F05AC02D813E8164
:1030B0002230310571F18D819E8183309105E9F1D6
:1030C0004FC0ABE3B0E0EBE3F0E08081482F8B81B1
:1030D000282F30E081E090E0022E02C0880F991F77
:1030E0000A94E2F784278C933BC0A8E3B0E0E8E3BE
:1030F000F0E08081482F8B81282F30E081E090E044
:10310000022E02C0880F991F0A94E2F784278C933D
:1031100027C0A5E3B0E0E5E3F0E08081482F8B8194
:10312000282F30E081E090E0022E02C0880F991F26
:103130000A94E2F784278C9313C0A2E3B0E0E2E3A1
:10314000F0E08081482F8B81282F30E081E090E0F3
:10315000022E02C0880F991F0A94E2F784278C93ED
:1031600081E0898399819C8302C029812C838C8191
:1031700026960FB6F894DEBF0FBECDBFCF91DF917C
:103180000895DF93CF9300D000D000D0CDB7DEB745
:103190008A836B8319828A81843008F057C08B81BF
:1031A000823008F053C08A81282F30E03E832D837F
:1031B0008D819E818130910509F12D813E812230E2
:1031C00031052CF48D819E81009761F03AC02D81EC
:1031D0003E8122303105F1F08D819E818330910551
:1031E00029F12FC08B81813029F4EAE3F0E08FEFE1
:1031F000808327C0EAE3F0E0108223C08B81813016
:1032000029F4E7E3F0E08FEF80831BC0E7E3F0E011
:10321000108217C08B81813029F4E4E3F0E08FEF56
:1032200080830FC0E4E3F0E010820BC08B8181301B
:1032300029F4E1E3F0E08FEF808303C0E1E3F0E005
:10324000108281E0898399819C8302C029812C832B
:103250008C8126960FB6F894DEBF0FBECDBFCF91FE
:10326000DF910895DF93CF9300D000D000D0CDB789
:10327000DEB78A836B8319828A81843008F057C055
:103280008B81823008F053C08A81282F30E03E8342
:103290002D838D819E818130910509F12D813E81A3
:1032A000223031052CF48D819E81009761F03AC067
:1032B0002D813E8122303105F1F08D819E81833058
:1032C000910529F12FC08B81882329F0EBE3F0E0F1
:1032D0008FEF808327C0EBE3F0E0108223C08B8167
:1032E000882329F0E8E3F0E08FEF80831BC0E8E358
:1032F000F0E0108217C08B81882329F0E5E3F0E02D
:103300008FEF80830FC0E5E3F0E010820BC08B816C
:10331000882329F0E2E3F0E08FEF808303C0E2E34B
:10332000F0E0108281E0898399819C8302C0298129
:103330002C838C8126960FB6F894DEBF0FBECDBFCE
:10334000CF91DF910895DF93CF93CDB7DEB72E975E
:103350000FB6F894DEBF0FBECDBFA7E2B0E0E7E244
:10336000F0E080818F718C93A7E2B0E0E7E2F0E0BB
:10337000808180648C93A6E2B0E0E6E2F0E0808198
:1033800080628C93A0E5B0E0E0E5F0E080818F7191
:103390008C93A0E5B0E0E0E5F0E080818C93A7E2BB
:1033A000B0E0E7E2F0E080818F7D8C93A6E2B0E0B0
:1033B000E6E2F0E0808180618C93A6E2B0E0E6E294
:1033C000F0E0808180688C9380E090E0A8E4B3E432
:1033D0008B879C87AD87BE876B857C858D859E8519
:1033E00020E030E04AE755E40E941F02DC01CB01F7
:1033F0008F839887A987BA876F81788589859A8511
:1034000020E030E040E85FE30E94250488232CF4AC
:1034100081E090E09E838D833FC06F8178858985B0
:103420009A8520E03FEF4FE757E40E94C503181646
:103430004CF56B857C858D859E8520E030E040E2F3
:1034400051E40E941F02DC01CB01BC01CD010E94AE
:103450004900DC01CB019E838D830FC080E991E0A0
:103460009C838B838B819C810197F1F79C838B8359
:103470008D819E8101979E838D838D819E81009792
:1034800069F714C06F81788589859A850E94490003
:10349000DC01CB019E838D838D819E819A838983FC
:1034A00089819A810197F1F79A8389832E960FB6C5
:1034B000F894DEBF0FBECDBFCF91DF910895DF93AB
:1034C000CF9300D0CDB7DEB78A831982A7E2B0E0F0
:1034D000E7E2F0E08081807E8C93A7E2B0E0E7E253
:1034E000F0E090818A81892B8C93A6E2B0E0E6E23D
:1034F000F0E0808180648C9389810F900F90CF9150
:10350000DF910895DF93CF93CDB7DEB7E4E2F0E02B
:1035100080819181CF91DF910895DF93CF9300D087
:1035200000D0CDB7DEB79B838A8319828A819B81C5
:10353000009719F489818C830AC081E089838A818C
:103540009B819093A3018093A20189818C838C81BC
:103550000F900F900F900F90CF91DF9108951F92D1
:103560000F920FB60F9211242F933F934F935F93B7
:103570006F937F938F939F93AF93BF93EF93FF933B
:10358000DF93CF93CDB7DEB78091A2019091A301D5
:10359000009729F0E091A201F091A3010995CF9144
:1035A000DF91FF91EF91BF91AF919F918F917F91AB
:1035B0006F915F914F913F912F910F900FBE0F90A0
:1035C0001F901895DF93CF930F92CDB7DEB7198276
:1035D00081E064E041E00E94971581E065E041E010
:1035E0000E94971581E066E041E00E94971581E016
:1035F00067E041E00E94971581E064E041E00E94AD
:10360000931681E065E041E00E94931681E066E058
:1036100041E00E94931681E067E041E00E9493162A
:1036200083E060E040E00E94971583E061E040E0C5
:103630000E94971583E064E040E00E94971583E0C4
:1036400065E040E00E94971583E060E041E00E9461
:10365000931683E061E041E00E94931683E064E00A
:1036600041E00E94931683E065E041E00E949316DA
:1036700081E0898389810F90CF91DF910895DF9355
:10368000CF93CDB7DEB72A970FB6F894DEBF0FBE43
:10369000CDBF8A87198281E08A8381E08B8381E0B4
:1036A0008C8381E08D8384E08E8385E08F8386E048
:1036B000888787E08987198236C099818A8598171B
:1036C000C1F48981282F30E0CE010296FC01E20F7F
:1036D000F31F40818981282F30E0CE010696FC013E
:1036E000E20FF31F9081842F692F40E00E94931610
:1036F00017C08981282F30E0CE010296FC01E20F2D
:10370000F31F40818981282F30E0CE010696FC010D
:10371000E20FF31F9081842F692F41E00E949316DE
:1037200089818F5F89838981843038F22A960FB628
:10373000F894DEBF0FBECDBFCF91DF910895DF9328
:10374000CF93CDB7DEB72F970FB6F894DEBF0FBE7D
:10375000CDBF9E878D871B828D859E85009719F42E
:103760008B818F877EC081E08C831A82198283E0EF
:103770008D8383E08E8383E08F8383E0888719863F
:1037800081E08A8784E08B8785E08C871A8263C01A
:103790008A810E943F1B198257C08981282F30E0FF
:1037A000CE010596FC01E20FF31F40818981282F8D
:1037B00030E0CE010996FC01E20FF31F90819E01DB
:1037C0002C5F3F4F842F692FA9010E948F178C8196
:1037D0008823B9F58A81882F90E09C01220F331F3E
:1037E000220F331F8981882F90E0820F931FFC01E5
:1037F000E259FE4F8081ED85FE8580831AC0898164
:10380000282F30E0CE010596FC01E20FF31F408126
:103810008981282F30E0CE010996FC01E20FF31FC9
:1038200090819E012C5F3F4F842F692FA9010E9438
:103830008F178C81882319F381E08B838B818F878D
:1038400010C089818F5F89838981843008F4A5CF76
:103850008A818F5F8A838A81843008F499CF8B8133
:103860008F878F852F960FB6F894DEBF0FBECDBF22
:10387000CF91DF910895DF93CF93CDB7DEB7E9976E
:103880000FB6F894DEBF0FBECDBF19AE80E060E08A
:1038900041E00E94971580E061E041E00E949715A9
:1038A00080E062E041E00E94971581E063E041E042
:1038B0000E94971581E062E041E00E94971581E047
:1038C00061E041E00E94971581E060E041E00E94E4
:1038D000971580E090E0ACE0B2E48DAB9EABAFAB6F
:1038E000B8AF6DA97EA98FA998AD20E030E04AE776
:1038F00055E40E941F02DC01CB0189AB9AABABAB54
:10390000BCAB69A97AA98BA99CA920E030E040E86A
:103910005FE30E94250488232CF481E090E098ABBB
:103920008FA73FC069A97AA98BA99CA920E03FEF86
:103930004FE757E40E94C50318164CF56DA97EA900
:103940008FA998AD20E030E040E251E40E941F02D0
:10395000DC01CB01BC01CD010E944900DC01CB019F
:1039600098AB8FA70FC080E991E09EA78DA78DA58A
:103970009EA50197F1F79EA78DA78FA598A90197FE
:1039800098AB8FA78FA598A9009769F714C069A96C
:103990007AA98BA99CA90E944900DC01CB0198ABB4
:1039A0008FA78FA598A99CA78BA78BA59CA50197EE
:1039B000F1F79CA78BA780E20E94DB1F80E20E94A8
:1039C000DB1F80E80E94DB1F80E090E0A0E8BFE3FF
:1039D0008FA398A7A9A7BAA76FA178A589A59AA52B
:1039E00020E030E04AE755E40E941F02DC01CB01F1
:1039F0008BA39CA3ADA3BEA36BA17CA18DA19EA113
:103A000020E030E040E85FE30E94250488232CF4A6
:103A100081E090E09AA389A33FC06BA17CA18DA116
:103A20009EA120E03FEF4FE757E40E94C503181620
:103A30004CF56FA178A589A59AA520E030E040E279
:103A400051E40E941F02DC01CB01BC01CD010E94A8
:103A50004900DC01CB019AA389A30FC080E991E062
:103A600098A38F8F8F8D98A10197F1F798A38F8FCF
:103A700089A19AA101979AA389A389A19AA10097E4
:103A800069F714C06BA17CA18DA19EA10E94490081
:103A9000DC01CB019AA389A389A19AA19E8F8D8F66
:103AA0008D8D9E8D0197F1F79E8F8D8F80E00E9406
:103AB000DB1F80EF0E94DB1F80E090E0A0E8BFE307
:103AC000898F9A8FAB8FBC8F698D7A8D8B8D9C8DF2
:103AD00020E030E04AE755E40E941F02DC01CB0100
:103AE0008D8B9E8BAF8BB88F6D897E898F89988DDA
:103AF00020E030E040E85FE30E94250488232CF4B6
:103B000081E090E09C8B8B8B3FC06D897E898F8993
:103B1000988D20E03FEF4FE757E40E94C503181649
:103B20004CF5698D7A8D8B8D9C8D20E030E040E2E4
:103B300051E40E941F02DC01CB01BC01CD010E94B7
:103B40004900DC01CB019C8B8B8B0FC080E991E09D
:103B50009A8B898B89899A890197F1F79A8B898B3E
:103B60008B899C8901979C8B8B8B8B899C89009777
:103B700069F714C06D897E898F89988D0E944900EC
:103B8000DC01CB019C8B8B8B8B899C89988B8F87DD
:103B90008F8598890197F1F7988B8F8780E00E9435
:103BA000DB1F81E00E94DB1F80E090E0A0E0B0E43A
:103BB0008B879C87AD87BE876B857C858D859E8531
:103BC00020E030E04AE755E40E941F02DC01CB010F
:103BD0008F839887A987BA876F81788589859A8529
:103BE00020E030E040E85FE30E94250488232CF4C5
:103BF00081E090E09E838D833FC06F8178858985C9
:103C00009A8520E03FEF4FE757E40E94C50318165E
:103C10004CF56B857C858D859E8520E030E040E20B
:103C200051E40E941F02DC01CB01BC01CD010E94C6
:103C30004900DC01CB019E838D830FC080E991E0B8
:103C40009C838B838B819C810197F1F79C838B8371
:103C50008D819E8101979E838D838D819E810097AA
:103C600069F714C06F81788589859A850E9449001B
:103C7000DC01CB019E838D838D819E819A83898314
:103C800089819A810197F1F79A83898380E00E9464
:103C9000DB1F86E00E94DB1F81E08093A40181E0AE
:103CA00089AF89ADE9960FB6F894DEBF0FBECDBFE0
:103CB000CF91DF910895DF93CF93CDB7DEB76E97A5
:103CC0000FB6F894DEBF0FBECDBF8E8F1D8E8E8DCA
:103CD00082958F70982F917081E060E0492F0E944B
:103CE00093168E8D829586958770982F917081E0BE
:103CF00061E0492F0E9493168E8D82958695869558
:103D00008370982F917081E062E0492F0E94931692
:103D10008E8D982F991F9927991F81E063E0492F75
:103D20000E94931680E062E041E00E94931680E0DA
:103D300090E0A0E0B0E4898F9A8FAB8FBC8F698D43
:103D40007A8D8B8D9C8D20E030E04AE755E40E940F
:103D50001F02DC01CB018D8B9E8BAF8BB88F6D89E1
:103D60007E898F89988D20E030E040E85FE30E94F3
:103D7000250488232CF481E090E09C8B8B8B3FC042
:103D80006D897E898F89988D20E03FEF4FE757E45A
:103D90000E94C50318164CF5698D7A8D8B8D9C8D0C
:103DA00020E030E040E251E40E941F02DC01CB0140
:103DB000BC01CD010E944900DC01CB019C8B8B8BA7
:103DC0000FC080E991E09A8B898B89899A89019744
:103DD000F1F79A8B898B8B899C8901979C8B8B8BB4
:103DE0008B899C89009769F714C06D897E898F89BA
:103DF000988D0E944900DC01CB019C8B8B8B8B89B9
:103E00009C89988B8F878F8598890197F1F7988B7C
:103E10008F8780E062E040E00E9493168091A401C9
:103E2000882309F4A2C08E8D982F917081E060E004
:103E3000492F0E9493168E8D8695982F917081E060
:103E400061E0492F0E9493168E8D86958695982F56
:103E5000917081E062E0492F0E9493168E8D8695C5
:103E600086958695982F917081E063E0492F0E9496
:103E7000931680E062E041E00E94931680E090E0BB
:103E8000A0E0B0E48B879C87AD87BE876B857C857F
:103E90008D859E8520E030E04AE755E40E941F02B0
:103EA000DC01CB018F839887A987BA876F817885DA
:103EB00089859A8520E030E040E85FE30E94250490
:103EC00088232CF481E090E09E838D833FC06F8136
:103ED000788589859A8520E03FEF4FE757E40E9477
:103EE000C50318164CF56B857C858D859E8520E075
:103EF00030E040E251E40E941F02DC01CB01BC0132
:103F0000CD010E944900DC01CB019E838D830FC04F
:103F100080E991E09C838B838B819C810197F1F7F1
:103F20009C838B838D819E8101979E838D838D8160
:103F30009E81009769F714C06F81788589859A857D
:103F40000E944900DC01CB019E838D838D819E817F
:103F50009A83898389819A810197F1F79A8389836A
:103F600080E062E040E00E94931681E08D8F8D8DAD
:103F70006E960FB6F894DEBF0FBECDBFCF91DF9126
:103F80000895DF93CF9300D0CDB7DEB78A8319822F
:103F900080E060E041E00E94931680E061E040E054
:103FA0000E9493168A810E945B1E89810F900F9058
:103FB000CF91DF910895DF93CF9300D0CDB7DEB7D7
:103FC0008A83198280E060E040E00E94931680E0DE
:103FD00061E040E00E9493168A810E945B1E81E0AE
:103FE000898389810F900F90CF91DF910895DF939E
:103FF000CF9300D000D00F92CDB7DEB79C838B83D8
:104000001A828B819C810097F9F019820FC08981F7
:10401000282F30E08B819C81FC01E20FF31F9081FF
:1040200089818F5F8983892F0E94C11F8981282FF1
:1040300030E08B819C81FC01E20FF31F808188239B
:1040400031F78A818D8304C081E08A838A818D83E0
:104050008D810F900F900F900F900F90CF91DF9167
:104060000895DF93CF93CDB7DEB7A0970FB6F8943E
:10407000DEBF0FBECDBF6B8F7C8F8D8F9E8F4F8F1E
:104080001E821D821C821B821A828B8D9C8DAD8D9F
:10409000BE8DBB2394F48DE20E94C11F8B8D9C8D3D
:1040A000AD8DBE8DB095A095909581959F4FAF4FEA
:1040B000BF4F8B8F9C8FAD8FBE8F8B8D9C8DAD8DA9
:1040C000BE8D0097A105B10509F04BC08D81282F49
:1040D00030E0CE010796FC01E20FF31F80E38083FE
:1040E0008D818F5F8D838D81282F30E0CE010796E3
:1040F000FC01E20FF31F10828E8188A37FC08F8D99
:10410000282F30E040E050E08B8D9C8DAD8DBE8D32
:10411000BC01CD010E94CA22DC01CB018C838D81C0
:10412000282F30E08C81482F405DCE010796FC019E
:10413000E20FF31F40838D818F5F8D838F8D282F3A
:1041400030E040E050E08B8D9C8DAD8DBE8DBC018C
:10415000CD010E94CA22DA01C9018B8F9C8FAD8FDD
:10416000BE8F8B8D9C8DAD8DBE8D0097A105B10549
:1041700031F68D81282F30E0CE010796FC01E20F49
:10418000F31F10828D8181508A832CC08B81282F50
:1041900030E0CE010796FC01E20FF31F8081898396
:1041A0008B81482F50E08A81282F30E0CE0107967E
:1041B000FC01E20FF31F2081CE010796FC01E40F02
:1041C000F51F20838A81282F30E0CE010796FC015D
:1041D000E20FF31F898180838B818F5F8B838A81BC
:1041E00081508A839B818A81981780F2CE0107963D
:1041F0000E94F71F81E08E838E8188A388A1A096FC
:104200000FB6F894DEBF0FBECDBFCF91DF910895FA
:10421000DF93CF93CDB7DEB727970FB6F894DEBF05
:104220000FBECDBF8B836C831A828B81813118F4D2
:104230008C81833018F02A812F8323C019828C81CE
:10424000282F30E03E832D838D819E818130910522
:1042500031F02D813E812230310521F007C08B8164
:10426000898305C08B81805C898301C01A82898122
:104270008068898389810E94DB1F81E08A833A817B
:104280003F838F8127960FB6F894DEBF0FBECDBF58
:10429000CF91DF910895DF93CF93CDB7DEB7279706
:1042A0000FB6F894DEBF0FBECDBF9D838C836E83A7
:1042B0001B828C819D81009719F08E81893018F0C6
:1042C0008B818F832AC08E81882F90E0880F991F61
:1042D000880F991F880F991F8A838A8180648A8337
:1042E0008A810E94DB1F19820EC08981282F30E04D
:1042F0008C819D81FC01E20FF31F80810E94C11F10
:1043000089818F5F89838981883078F382E00E9478
:10431000DB1F81E08B838B818F838F8127960FB684
:10432000F894DEBF0FBECDBFCF91DF910895DF932C
:10433000CF9300D000D0CDB7DEB78A836B834C8398
:1043400019828C816B810E9408218A810E94C11F81
:1043500081E0898389810F900F900F900F90CF910A
:10436000DF910895DF93CF930F92CDB7DEB70E9410
:104370006008898389810F90CF91DF910895DF9341
:10438000CF9300D000D0CDB7DEB79C838B831A8249
:10439000EB81FC8182818170882F90E0880F991FCA
:1043A000880F991F282F206AEB81FC8182818695D6
:1043B0008170882F90E0880F991F922F982BEB81A6
:1043C000FC818281869586958170892B89830E94E4
:1043D0008908813079F489810E941D09EB81FC8173
:1043E00080810E941D09EB81FC8181810E941D0951
:1043F0000E94C90881E08A838A810F900F900F90F4
:104400000F90CF91DF910895DF93CF9300D000D02C
:10441000CDB7DEB79C838B831A82EB81FC8111823E
:10442000EB81FC8182818170882F90E0880F991F39
:10443000880F991F282F206AEB81FC818281869545
:104440008170882F90E0880F991F922F982BEB8115
:10445000FC818281869586958170892B89830E9453
:1044600089088130A9F489810E941D09EB81FC81B2
:1044700080810E941D090E948908898181600E94B3
:104480001D098B819C8101960E9443090E94C908E5
:1044900081E08A838A810F900F900F900F90CF91C7
:1044A000DF910895DF93CF93CDB7DEB782E062E06E
:1044B00041E00E94971582E067E041E00E94971575
:1044C00083E063E041E00E94971583E063E040E011
:1044D0000E94931682E062E041E00E94931682E01F
:1044E00067E040E00E949316FFCF629FD001739F68
:1044F000F001829FE00DF11D649FE00DF11D929F80
:10450000F00D839FF00D749FF00D659FF00D9927BE
:10451000729FB00DE11DF91F639FB00DE11DF91FE2
:10452000BD01CF0111240895AA1BBB1B51E107C097
:10453000AA1FBB1FA617B70710F0A61BB70B881F33
:10454000991F5A95A9F780959095BC01CD010895C2
:10455000A1E21A2EAA1BBB1BFD010DC0AA1FBB1F87
:10456000EE1FFF1FA217B307E407F50720F0A21BF9
:10457000B30BE40BF50B661F771F881F991F1A9466
:1045800069F760957095809590959B01AC01BD0190
:10459000CF01089597FB092E05260ED057FD04D0B4
:1045A000D7DF0AD0001C38F45095409530952195FE
:1045B0003F4F4F4F5F4F0895F6F790958095709558
:1045C00061957F4F8F4F9F4F08952F923F924F924B
:1045D0005F926F927F928F929F92AF92BF92CF9293
:1045E000DF92EF92FF920F931F93CF93DF93CDB79C
:1045F000DEB7CA1BDB0B0FB6F894DEBF0FBECDBF14
:1046000009942A88398848885F846E847D848C84E4
:104610009B84AA84B984C884DF80EE80FD800C81ED
:104620001B81AA81B981CE0FD11D0FB6F894DEBFD0
:0C4630000FBECDBFED010895F894FFCF40
:10463C00000000000000000000010202030303035D
:10464C000404040404040404050505050505050516
:10465C0005050505050505050606060606060606F6
:10466C0006060606060606060606060606060606DE
:10467C0006060606060606060707070707070707C6
:10468C0007070707070707070707070707070707AE
:10469C00070707070707070707070707070707079E
:1046AC00070707070707070707070707070707078E
:1046BC000707070707070707080808080808080876
:1046CC00080808080808080808080808080808085E
:1046DC00080808080808080808080808080808084E
:1046EC00080808080808080808080808080808083E
:1046FC00080808080808080808080808080808082E
:10470C00080808080808080808080808080808081D
:10471C00080808080808080808080808080808080D
:10472C0008080808080808080808080808080808FD
:10473C0008080808080808080103000000003738BA
:0E474C00392F343536583132332D4B303D2B5A
:00000001FF
